:0E0000000C9466000C9400000C9400000C940C
:10000E0000000C9400000C9400000C9400000C9462
:10001E0000000C9400000C9400000C9400000C9452
:10002E0000000C9400000C9400000C9400000C9442
:10003E0000000C9400000C9400000C9400000C9432
:10004E0000000C9400001027E80364000A00010071
:10005E00001000011000010054656D70657261742E
:10006E007572653D256900477265656E2D4C454478
:10007E002F4F6E005265642D4C45442F4F6E00413C
:10008E0044432056616C75653A2025750A00477207
:10009E0065656E204C4544204F6E0A005265642003
:1000AE004C4544204F6E0A0080C00D006002750062
:1000BE000B006D02820002007802B6000000F89478
:1000CE00EE27ECBBF1E0FBBFEBBFE5BF8DE0A2E09E
:1000DE00BB27ED938A95E9F780E098E0A0E6ED93D3
:1000EE000197E9F7E8EBF0E085919591009761F0C3
:1000FE00A591B59105901590BF01F00105900D9257
:10010E000197E1F7FB01F0CFEFE5EDBFE8E0EEBFC1
:10011E00C0E6D2E00C94E30048D3AD0100E010E05D
:10012E000417150760F420E030E02C36ECE03E07B3
:10013E001CF42F5F3F4FF9CF0F5F1F4FF1CF3CD312
:10014E00269608951A931A2FE12FE7B98BE18A9517
:10015E00F1F7369A349BFECF349AE4B1F5B10C9494
:10016E0074036E9724D31A2F2AA13BA15FD2E0E02D
:10017E00EA93A0E049D2FE013496FA93EA93E6E6BA
:10018E00F0E0FA93EA93F901662777274AD384E0E1
:10019E00C4D12896DE01149667D2E0E0EA93A1E07E
:1001AE0033D2103019F0A0E6B2E002C0ADE6B2E0F4
:1001BE005BD204D3A4960895E0E0EABBEBBBEBE779
:1001CE00E7BBE0E0E8BBE3E0E4BBE0E0E5BBE1BBBE
:1001DE00E2BBE0E8E8B9E6E8E6B9E0E0E0BFA0E1BE
:1001EE0052D2A0E0AFDF2F01D201E2E0F0E002D365
:1001FE002F01EDE8F0E0FA93EA93F2016F2F660F0C
:10020E00660B762F0ED384E0B4D12696EEE1F0E0A5
:10021E00E415F50574F4ECE9F0E07AD2C09AA8EC96
:10022E00B0E07ADFC0987AD2A99A5A924A92A1E0A7
:10023E000DC0EAEAF0E06CD2C19AA8ECB0E06CDF37
:10024E00C1986CD2A9985A924A92A0E08ADFC9CF7F
:10025E00FFCFAA935D9BFECFE881ECB90C94090306
:10026E00A6D28D013C81A32FF4DFD8015CD2A6D299
:10027E00259608959AD29D015E811296ED91FC917C
:10028E0011973097E9F0D90154D28F01309759F078
:10029E000230E0E01E0760F0F80131978F01D901BE
:1002AE001496ED93FC93D90112963DD2319750835B
:1002BE00D901ED91FC911197FF230AF034D205C0BC
:1002CE00D901EFEFFFEFED93FC9376D227960895C9
:1002DE00BA93AA93269769D210E0AC85BD85E0E06B
:1002EE00F0E0ED93FC93EA89FB893196EA8BFB8B68
:1002FE003197E4912E2FE03009F408C1E12FE03060
:10030E0031F4253211F411E001C018D2FEC0E130F3
:10031E00A1F4253211F412D2F7C012E040E000E051
:10032E002D3211F401E0F1C02B3211F44BE2EDC08D
:10033E00203211F440E2E9C002C0E23039F450E05C
:10034E0013E0203311F40068E0C003C0E33009F07D
:10035E00DCC0203310F02A3308F007C0AAE05A9F01
:10036E00502DE22FE0535E0FD0C0E22FE33639F46A
:10037E00ECD1E889F989A481AA93EDD1C5C0E33700
:10038E0029F4E3D1EED1ABD11E2F07C0E03749F4EB
:10039E00DCD1E7D1B0D11E2F086002600F7730E0BC
:1003AE0037C0E43611F0E93611F4046002C0E537C7
:1003BE0031F4E4E5F0E0EE83FF8315E00CC0E835A0
:1003CE0011F4086003C0E83709F09EC0EEE5F0E0D6
:1003DE00EE83FF8314E002FF15C0B7D1A889B98957
:1003EE001496ED91FD91EA87FB87AB85AA2322F443
:1003FE00EAD1EA87FB874DE2403011F01F5F01C062
:10040E000B7F06C0A2D1A889B98993D1EA87FB8751
:10041E0000FD10C0151770F407FF08C002FF04C0DE
:10042E000B7F242F115001C020E301C020E286D1A2
:10043E005150F0CF312F01FF16C0303099F003FF2D
:10044E0006C0EE81FF812591EE83FF8305C0AE814C
:10045E00BF812D91AE83BF8371D1503009F05150C1
:10046E003150EBCF48C020E3EE81FF81D6D1E88733
:10047E00F987EE81FF813296EE83FF83E885F98559
:10048E00AA85BB85AE17BF0750F02F5FA885B9852B
:10049E00EA85FB85EA1BFB0BEA87FB87EFCF2A3346
:1004AE0028F003FF02C0295F01C0295D04FD19C0B9
:1004BE00213320F4A885B985119709F409C0531783
:1004CE0010F000FF01C011C020E207FF0AC020E3B8
:1004DE00006102FF06C00B7F4A933DD1503009F0F8
:1004EE0051502CD1503009F051503150A885B9855A
:1004FE00129708F0B8CF00FF07C0503029F05150C6
:10050E00E0E2EA9328D1F9CF10E0EDCEAC85BD85BF
:10051E00ED91FD9151D164960895FF92F82E269794
:10052E0044D1FE010024EF0DF01D46855785042EA3
:10053E00052A19F4EFEFFFEF18C0DE0118961BD154
:10054E0048875987E0E0EA87EB87DE011C9618D1D1
:10055E00E1E4F1E0FA93EA93DE011C96B9DE9F0125
:10056E00A885B985E0E0EC93F90126D12C96FF9091
:10057E000895FF92F82E26971A930A93DE01149689
:10058E00FAD0E0E0EC83ED83EE83EF83DE01189684
:10059E00F7D0E7E3F1E0FA93EA93DE01189698DEDE
:1005AE00198108812896FF9008951A931A2F14FF27
:1005BE0002C0939A01C0939815FF02C0949A01C08D
:1005CE00949816FF02C0959A01C0959817FF02C025
:1005DE00969A01C096988DE08A95F1F7929A8DE0E1
:1005EE008A95F1F792988DE08A95F1F776C0AA93E5
:1005FE00A881DBDFE881E295E883A881D6DF85E874
:10060E008A95F1F7219608951A930A931A2F0A8163
:10061E00E12FF0E0E858FD4FE081E00FAE2FE7DF6D
:10062E00702E612E1981088123960895A2E0B2D012
:10063E00ACE0DDDFA1E0AED0E0E06E2E7E2E0895C0
:10064E001A931A2F1A3011F0791440F0E0E0EA9361
:10065E006394A62DD9DF1A3009F43FC07394909A93
:10066E00A12FC5DF909839C0A2D09D01D9012F5F6F
:10067E003F4FEC911E2FE03019F0A12FE1DFF6CFA6
:10068E009DD0249608951A931A2F8B9A8C9A8D9A30
:10069E008E9A8A9A889A899A929890989198912E81
:1006AE00E12FE058E0937A02E12FE054E0937B02D1
:1006BE00A4E1B0E0BBD072D071D070D0A0E275DFF3
:1006CE0088EC90E00197F1F7A8E291DFA4E08FDFCC
:1006DE00A5E88DDFA6E08BDFA9DF19910895BA9307
:1006EE00AA93A991B991EE27FF276D91662311F078
:1006FE003196FBCF0895BA93AA93AA27BB27E99107
:10070E00F9910590002011F01196FBCFFD0108958F
:10071E00FA93EA9380E02DDF22960895A8ECB0E0DC
:10072E00FBDCA8980895ED91FD913196FE93EE9322
:10073E0008951496ED91FC91119708952A93AD8525
:10074E00BE85EF85F88909950895E889F98934976A
:10075E00E88BF98B0895AD85BE85EF85F8890995EF
:10076E000895A889B9891496ED91FD91EE83FF83C2
:10077E00AE81BF8108950024AF0DB01D8D01089587
:10078E000024AF0DB01DED91FD91FA93EA931A93EB
:10079E000A9308952CDFA3E0B0E048C0A0E305DF84
:1007AE0088EC90E00197F1F708955A934A933A93A3
:1007BE002A931A930A9308955D814C813B812A8175
:1007CE00198108810895F195E195F040089500246E
:1007DE00112490E1AA0FBB1F001C111C0E1A1F0A38
:1007EE0018F40E0E1F1E01C0A1609A9599F7FD0117
:1007FE00D001089504D0EBDF0EF4E5DF0895E89400
:10080E00F7FF02C0E0DF6894B7FF06C0B195A1956F
:10081E00B04000F8039400FA08950590F491E02D8D
:10082E0008957A936A93FA93EA930895109639F09D
:10083E00A89580ED97E00197F1F71197C9F7089504
:00000001FF
